:020000040800F2
:10000000680B0020790200086D1C0008011C000824
:10001000691C0008831A000853240008000000002F
:100020000000000000000000000000004D1E00085D
:10003000A51A000800000000F51C0008611F000858
:10004000930200089302000893020008930200083C
:10005000930200089302000893020008930200082C
:10006000930200089302000893020008930200081C
:10007000930200089302000893020008930200080C
:1000800093020008930200089302000893020008FC
:1000900093020008930200089302000893020008EC
:1000A00093020008930200089302000893020008DC
:1000B00093020008C51F000893020008930200087D
:1000C00093020008930200089302000893020008BC
:1000D000930200083D21000893020008D521000882
:1000E000930200089302000893020008930200089C
:1000F000930200089302000893020008930200088C
:10010000930200089302000893020008930200087B
:10011000930200089302000893020008930200086B
:10012000930200089302000893020008930200085B
:1001300000F002F800F090F80AA090E8000C824469
:100140008344AAF10107DA4501D100F085F8AFF246
:10015000090EBAE80F0013F0010F18BFFB1A43F0A5
:10016000010318477C4100009C410000103A24BF65
:1001700078C878C1FAD8520724BF30C830C144BF0C
:1001800004680C607047000000230024002500264E
:10019000103A28BF78C1FBD8520728BF30C148BFEA
:1001A0000B6070476E2900F09783702900F0CB84B4
:1001B000662904F02780652904F02480672904F06B
:1001C00021806129AFF3008003681B0A28BF41F03A
:1001D0008001692900F0D880642900F0D580752954
:1001E00000F0D2806F2900F05984782900F09784BC
:1001F000E92900F0F583E42900F0F283F52900F005
:10020000EF83EF2900F05684F82900F09684036804
:10021000DB0928BF41F08001632900F019877329A9
:1002200000F01E87E32900F02987F32900F02E87CC
:10023000002070471FB500F095FC0400002000214D
:1002400003F0B4FF401C60600020002103F0C4FFF5
:10025000E0601FBD10B510BD00F040FF1146FFF774
:10026000E9FF03F061FB01F00BF803B4FFF7F2FFC5
:1002700003BC02F00BF90000094880470948004719
:10028000FEE7FEE7FEE7FEE7FEE7FEE7FEE7FEE746
:10029000FEE7FEE704480549054A064B70470000A3
:1002A000651F00083101000868050020680B002068
:1002B0006807002068070020704770B50446051FD6
:1002C00000F072FA0068002C14BF446870BD002C66
:1002D00018BFAC423CBF20466468F8D301680A18D6
:1002E000AA4218BF456003D12A680546114401603F
:1002F00028684119A1421CBF6C6070BD61686960CB
:1003000021680844286070BD0FB4044910B503AAE1
:10031000029800F0F5FA10BC5DF814FB1C000020F8
:100320000FB4044910B503AA029800F0E9FA10BC12
:100330005DF814FB1C00002070B504468569006858
:10034000C10601D5302600E02026C00707D070BDC9
:10035000D4E9012130469047206A401C20626D1E7E
:10036000F6D570BD70B5044685690078C00707D121
:1003700070BDD4E9012120209047206A401C2062F2
:100380006D1EF6D570BD00002DE9F0410646002433
:1003900010687529314615A510D000F009FA00281B
:1003A00002DA404212A507E031688A0701D511A59B
:1003B00002E0490704D510A5012401E000F001FA8C
:1003C00000210A2306F1240707E0B0FBF3F203FB48
:1003D0001200303078541046491C0028F5D12346CD
:1003E0002A463046BDE8F04100F01DBA000000008A
:1003F0002D0000002B000000200000002DE9F05F20
:10040000894604464FF0000ADFF874B1FB44C0F897
:1004100020A02046E1688847002874D0252806D00F
:10042000D4E901219047206A401C2062F1E70026B0
:100430005F462046E16888472028054607DB312DC6
:1004400005D2781910F8200C08B10643F1E7B0077F
:1004500001D526F00406C4F81CA00027C4F818A093
:100460002A2D09D0284602F00AF838B304EB870891
:10047000303DC8F8185019E059F8041B204604EB29
:1004800087029161E1688847012F054618D1E0692C
:10049000002820DA26F020061DE0D8F8180000EB2E
:1004A000800005EB40003038C8F818002046E168AD
:1004B0008847054601F0E3FF0028EED1012F0AD05E
:1004C0002E2D08D12046E16888477F1C0546022F63
:1004D00046F02006C4DBA069002803DA404246F05B
:1004E0000106A061F00701D026F010066C2D0BD09C
:1004F000682D09D04C2D39D06A2D35D0742D35D0CA
:100500007A2D33D016E038E0E1682F462046884740
:10051000B842054609D16C2F26D04FF48060E168BF
:10052000064320468847054604E06C2F1AD04FF456
:10053000807006430DB3A5F14100192802D820357B
:1005400046F400664A462946204626604E46FFF796
:1005500029FE80B101280BD0F61D26F0070000F11E
:10056000080956E74020E4E78020D8E70020D6E7D6
:1005700006F104094DE7284652E7206ABDE8F09FDE
:10058000F83D000030B505460B462A4613F8014BEE
:1005900012F8010B08B1A042F8D01CB1002802D01B
:1005A0006D1CF1E7284630BD40EA010310B59B07FA
:1005B0000FD1042A0DD310C808C9121F9C42F8D0CD
:1005C00020BA19BA884201D9012010BD4FF0FF307E
:1005D00010BD1AB1D30703D0521C07E0002010BD94
:1005E00010F8013B11F8014B1B1B07D110F8013B20
:1005F00011F8014B1B1B01D1921EF1D1184610BD01
:10060000032A40F2308010F0030C00F0158011F83E
:10061000013BBCF1020F624498BF11F801CB00F816
:10062000013B38BF11F8013BA2F1040298BF00F86A
:1006300001CB38BF00F8013B11F0030300F0258027
:10064000083AC0F0088051F8043B083A51F804CB4E
:10065000A0E80810F5E7121D5CBF51F8043B40F814
:10066000043BAFF30080D20724BF11F8013B11F81F
:1006700001CB48BF11F8012B24BF00F8013B00F863
:1006800001CB48BF00F8012B704710B5203AC0F0ED
:100690000B80B1E81850203AA0E81850B1E8185083
:1006A000A0E81850BFF4F5AF5FEA027C24BFB1E8C0
:1006B0001850A0E8185044BF18C918C0BDE8104031
:1006C0005FEA827C24BF51F8043B40F8043B08BF3A
:1006D0007047D20728BF31F8023B48BF11F8012B01
:1006E00028BF20F8023B48BF00F8012B704702F0FA
:1006F000FF0343EA032242EA024200F002B84FF04D
:1007000000020429C0F0128010F0030C00F01B80DE
:10071000CCF1040CBCF1020F18BF00F8012BA8BFEC
:1007200020F8022BA1EB0C0100F00DB85FEAC17CB0
:1007300024BF00F8012B00F8012B48BF00F8012B63
:1007400070474FF0000200B5134694469646203994
:1007500022BFA0E80C50A0E80C50B1F12001BFF47A
:10076000F7AF090728BFA0E80C5048BF0CC05DF8E0
:1007700004EB890028BF40F8042B08BF704748BF2E
:1007800020F8022B11F0804F18BF00F8012B7047A2
:10079000704770477047704710B500F0E3F9001DCF
:1007A00010BD00BF093A0000004870470C0500204A
:1007B00009684A0501D540B27047C905FCD500B2A9
:1007C000704709684A0501D5C0B27047C905FCD514
:1007D00080B2704770B50C460546012A05D02878CE
:1007E000800600D5EA69002302E0012305E05B1CD6
:1007F000934202D2E05C0028F9D1A869E618C01A39
:10080000A861286A184428622846FFF795FD04E08D
:10081000D5E9012114F8010B9047B442F8D32846DA
:10082000FFF7A0FD70BD2DE9F0470D4699469246B1
:10083000044600F124080168880604D5E06921F027
:100840001001216000E00120A84201DD471B00E00B
:100850000027A1697A1902EB0900081AA061207823
:10086000C00602D42046FFF767FD002608E0D4E961
:1008700001211AF806009047206A401C761C20626D
:100880004E45F4DB2078C0060AD52046FFF754FD1C
:1008900006E0D4E9012130209047206A401C206204
:1008A000381EA7F10107F4DC07E0D4E9012118F8AC
:1008B00005009047206A401C2062281EA5F1010512
:1008C000F3DC2046FFF74EFD2078000602D502201B
:1008D000BDE8F0870120FBE711680268006A530554
:1008E00001D508700AE0D30501D5088006E013069B
:1008F00003D5C217C1E9000200E00860012070477B
:10090000074B70B50D467B4400F085FB0446284636
:1009100000F0C0FB10B14FF0FF3070BD204670BD3D
:10092000F31C00002DE9FF5F15468A460446DFF8F8
:10093000AC80F8440027D8E900103E46CDE900100D
:1009400010E03AF816106A4602A800F0A7FB411C16
:1009500007D02178890603D5E269391891420DD86C
:100960000744761C2078800602D5E069B84205DD90
:10097000AE42E6DB3AF816000028E2D1A069C01BBF
:10098000A0612046FFF7D8FCD8E90010CDE900109F
:10099000002017E03AF818106A4602A800F07EFB23
:1009A000B0F1FF3F81460BD000250DF1080B05E0AB
:1009B000D4E901211BF8050090476D1C4D45F7D384
:1009C00008F10100B0428046E4DB206A384420622E
:1009D0002046FFF7C7FCBDE8FF9F0000E638000097
:1009E0002DE9F0418046D21D22F007020025D2E910
:1009F0000002F52914A612D0002A06DA0023D0EB53
:100A0000030063EB020211A608E0D8F800108B0780
:100A100001D50FA602E0490701D50EA60125114612
:100A2000002408F1240704E000F0A0F830323A5521
:100A3000641C50EA0102F7D12B463246214640465B
:100A4000BDE8F041FFF7EFBE000000002D00000000
:100A50002B0000002000000030B4002100F124042D
:100A600008E002F00705D208303542EA4372DB089D
:100A70006554491C52EA0305F3D10468002310A20F
:100A8000250708D504F020040C4304D0C4690123D1
:100A90000CA2641EC46130BCFFF7C5BE10B504468D
:100AA00021461068FFF78DFE02462046BDE8104043
:100AB0000023D1E7D21D22F00701D1E90023CBE7C3
:100AC0000000000030000000F0B40D460188090568
:100AD00002D5214C7C4402E01F4C7C440E340021A2
:100AE00000F1240608E002F00F071209E75D42EA70
:100AF00003721B097754491C52EA0307F3D10278A9
:100B00000023120704D5702D06D009B10223113439
:100B10002246F0BCFFF787BE01231034F8E770B51A
:100B200004460D4621461068FFF74BFE0246294653
:100B30002046BDE870400023C6E7D21D22F007031F
:100B4000D3E90023C0E70368126843F02003036081
:100B50000823C3610023B7E74C3700000048704703
:100B600004050020004870472405002030B5B0F18E
:100B70000A024FEA900E71F100034EEA817EB0EB5B
:100B80000E0061EB91014FEA101E4EEA017E10EB60
:100B90000E0041EB11114FEA102E4EEA016E10EBE0
:100BA0000E0041EB11214FEA104E4EEA014E10EBC0
:100BB0000E0041EB1141401841F100014FEAD00015
:100BC00040EA41704FEAD10110EB80054FEA810401
:100BD00044EA907444EB01046D1944EB0404521B85
:100BE000A3414FF0000348BF0A3200D530BD401C7E
:100BF00041F1000130BD70472DE9FF4F0C461E4604
:100C00004FF0FF378BB0D2E90001DDF860800A9029
:100C10008A46C1F30A5505B93D46002108464FF002
:100C20000000BAF1000F00F4400005DA00EB80008C
:100C30004FF4400101EA50004FEA9059B9F1010F19
:100C400000DDB9460A9850EA4A000ED044F610502A
:100C5000A5F2FF3545432F14B8F1000F1ED07542A1
:100C6000291E1EDDC9F100021CE0B8F1010F4FF092
:100C7000000001D0302103E0F24305E02154401C84
:100C8000B042FBDB30460022002121540B99C1F811
:100C90000880C1E900200FB0BDE8F08FBD1B6D1CBE
:100CA000DEE74A4600DA694206A800F07DFA06ABA4
:100CB00093E8070003AB83E8070050460A9900F069
:100CC00025FB8DE80700A0F500501F380090039821
:100CD000002D09DD42F21F014A46084403A9039092
:100CE000684600F084FD08E0A0F500504A461F3831
:100CF00003A90390684600F08EFD8DE8070000040C
:100D0000000C03D04FF0FF30410800E01046B8F16E
:100D1000000F03D00022009215461EE0751E05D478
:100D2000FFF724FF303262556D1EF9D5B34601221C
:100D3000084302D000227F1C04E02078302801D133
:100D400000227F1E002A099786D01DE0112D07DAA8
:100D5000FFF70CFF303262556D1C50EA0102F5D1ED
:100D6000084302D00098C8B10EE00021681E05E0DB
:100D7000235C625C63542254401E491C8142F7DBB1
:100D8000AB46A81B401E0990002004F80B000B98EE
:100D9000099AC0F80880C0E9002B7CE711264FF0C3
:100DA000000859E72DE9F04F88460446D21D22F08D
:100DB000070191B0D1E90001CDE90A0101F04BFB37
:100DC00002460B98C00F01D02D2007E02068810754
:100DD00001D52B2002E0202101EAC000032A09905E
:100DE00001D0072A05DB03464146204600F09CF966
:100DF00009E12078800601D5E06900E00620B8F11D
:100E0000650F814606D0B8F1660F18D0B8F1670FAC
:100E100070D131E00020B9F1110F009001DB1123F6
:100E200001E009F101030AAA01A90CA8FFF7E4FEF9
:100E3000DDE90C70002609F10105834647E0012039
:100E40004B4600904FF000470AAA01A90CA8FFF7F3
:100E5000D3FEDDE90DB00C995D46002610B909F10D
:100E600001000D18B9EB050003D4C0F1FF3609F1FC
:100E70000105A5EB09002BE0B9F1010F01DA4FF0F4
:100E800001090020B9F1110F0090484601DD11233E
:100E900000E003460AAA01A90CA8FFF7ADFEDDE9B0
:100EA0000C704D4600268346207800070AD4AB45D7
:100EB00000DA5D4601A8012D04DD411911F8011C7D
:100EC000302907D04F4502DA17F1040F04DA012068
:100ED00082460FE06D1EEEE7002F02DCED1B3E4464
:100EE00003E0781CA84200DD7D1CB81B00F1010A5C
:100EF0004FF000472078000703D4AA4501DB4FF0EC
:100F0000FF3A0021B7F1004F0DF143088DF843106F
:100F100022D002202B23002F01DA7F422D234FF015
:100F20000A0C011EA0F1010000DC47B197FBFCF1A7
:100F30000CFB11720F46303208F8012DF1E7A8F1D1
:100F4000010003702188090501D5452100E06521D4
:100F5000A0F1010800F8011C09980FA9A1EB0807EE
:100F6000FF1D00B10120411901EBEA70A16938446D
:100F7000081A401EA0612078C00602D42046FFF760
:100F8000DBF9099828B1D4E901219047206A401C77
:100F900020622078C00622D52046FFF7CDF91EE05A
:100FA000002E04DBB34502DD01A8805D00E03020A7
:100FB000D4E901219047206A401C2062761CAAF1E6
:100FC00001005FEA000A0AD1FFF7CCFDC0680168A2
:100FD000405CD4E901219047206A401C2062281E11
:100FE000A5F10105DCDC07E0D4E9012118F8010BCB
:100FF0009047206A401C2062381EA7F10107F3DCED
:101000002046FFF7AFF9022011B045E601694A1CFE
:1010100002610878704700B58FB0CDE90131002139
:10102000059105497944CDE9031011466846FFF75B
:10103000E5F90FB000BD0000E5FFFFFF10B5436903
:1010400013B1AFF3008001E0FFF7C4FB012010BD36
:10105000127800F124010A7000224A700122EDE7A3
:1010600011684FF0FF32E9E710B5436913B1AFF3F0
:10107000008001E0FFF756FC012010BD128800F14E
:10108000240182840022C2840122EDE711684FF01E
:10109000FF32E9E7007B00F08000704770B516462C
:1010A0000C460546FFF778FB036893F80101012819
:1010B00006D0FF2C0FD8185D68B101202C7070BDD0
:1010C000D3F807013246214603442846BDE8704064
:1010D00003F2071318474FF0FF3070BD7546FFF756
:1010E0003DFDAE4605006946534620F007008546A3
:1010F00018B020B5FFF7CEF8BDE820404FF000064D
:101100004FF000074FF000084FF0000B21F00701EF
:10111000AC46ACE8C009ACE8C009ACE8C009ACE832
:10112000C0098D46704700002DE9F0411F46044676
:1011300003260168072A01F4006004DB08B116A544
:1011400005E016A503E008B115A500E015A521F0FE
:1011500010002060A069C01EA0610FB1401EA061F8
:101160002046FFF7E9F84FB1D4E90121384690470E
:10117000206A401C2062C01C206206E0206AFAE758
:10118000D4E9012115F8010B9047761EF8D22046CC
:10119000FFF7E8F8BDE8F0814E414E006E616E0049
:1011A000494E4600696E66002DE9F04781461646B5
:1011B0008AB0324878440DC88DE80D002F48784435
:1011C000801C03AC0DC884E80D0041F69B3037222B
:1011D000014491FBF2F0A0F1800502FB10141B3CCE
:1011E00002D56442012000E00020DFF890A0804694
:1011F0000027FA44AAF1BA0A0DE0E00709D0324606
:10120000684607EB47010AEB810100F004FB8DE81B
:10121000070064107F1C002CEFD1184F7F44A83FBB
:1012200018E0E80714D007EB04100DF1180A90E855
:101230000E008AE80E00C068F04201D198190890AB
:10124000324606A903A800F0E6FA03AB83E80700DC
:101250006D10641C002DE4D132466946B8F1000FD0
:1012600003A802D000F0C3FA01E000F0D4FAC9E903
:101270000001C9F808200AB0BDE8F087103100006D
:101280000446AFF300802046FEF7EFFF4FF0013C2D
:1012900050F8042B51F8043B9A4221D1A2EB0C03E5
:1012A000934313EACC1317D150F8042B51F8043BA5
:1012B0009A4215D1A2EB0C03934313EACC130BD142
:1012C00050F8042B51F8043B9A4209D1A2EB0C03CD
:1012D000934313EACC13DBD04FF00000704700BFFC
:1012E000D01A01BAB1FA81F101F0180122FA01F025
:1012F000CB40C1F12001DBB2C0B2C01A2CFA01F31D
:10130000D11A914311EAC311E6D170475FEA400C4C
:1013100008BF91F0000F4FEA8C234FEAC12243EA45
:1013200051514FEA1C5018BF00F5F0404FEA300011
:1013300018BF41F000415FEA6C5C00F02980BCF10D
:10134000FF3F08BF40F080407047130C06BF1204F7
:101350004FF0100C4FF0000C130E04BF12020CF1F2
:10136000080C130F04BF12010CF1040C930F04BFFF
:1013700092000CF1020CD30F04BF52000CF1010CCF
:1013800011464FF00002A0F11F00A0EB0C007047C7
:1013900011F0004F08BF704731F000413FF4D5AF66
:1013A0000B0C06BF09044FF0100C4FF0000C0B0E95
:1013B00004BF09020CF1080C0B0F04BF09010CF16A
:1013C000040C8B0F04BF89000CF1020CCB0F04BF7F
:1013D00049000CF1010CCCF12003A0EB0C0022FA27
:1013E00003F302FA0CF241EA030100F10100704735
:1013F00020F07F4C80EA030023F07F47ACEB07032B
:1014000003F57C5300F0004003F1FF032DE9804910
:101410004FEA154B09B44FEA144325EA0B4E24EA70
:1014200003480FF2042606EB132749083E785FEACB
:10143000320203FB0667C7F5000707FB06F64FEA13
:1014400054374FEAD64606F1020607FB066CCCF18C
:10145000005C4FEA1C472CEA074C07FB06F40CFB28
:1014600006F504EB15464FEA961634BF00204FF000
:1014700000404FEAD13706FB07FC4FEA1C4C0CFB3F
:101480000BF7D21B03FB0CF761EB07010CFB0EF70C
:10149000B0EB074072EB17420CFB08F734BFA2EB2E
:1014A0000742B2EB074261EB17414FEA0C444FEAA7
:1014B000910706FB07FC4FEA1C4C0CFB0BF7B0EB4B
:1014C000C74072EB573203FB0CF734BFA2EBC742A5
:1014D000B2EBC74261EB57310CFB0EF7B0EBC70024
:1014E00072EB57720CFB08F734BFA2EBC702B2EBEA
:1014F000C70261EB5771039F4FEA816141EA921184
:1015000004EBCC044FEAD1374FEA826206FB07FCBA
:1015100042EA90124FEA80604FEA1C4C0CFB0BF73A
:10152000D21B03FB0CF761EB07010CFB0EF7B0EBD2
:10153000074072EB17420CFB08F734BFA2EB0742DF
:10154000B2EB074261EB17414FEA8C554FEA910726
:1015500004EB9C2406FB07FC4FEA1C4C0CFB0BF72E
:10156000B0EBC74072EB573203FB0CF734BFA2EB72
:10157000C742B2EBC74261EB57310CFB0EF7B0EB41
:10158000C70072EB57720CFB08F734BFA2EBC7021F
:10159000B2EBC70261EB577115EB4C254FEA816145
:1015A00041EA92114FEA82624FEAD13742EA901241
:1015B00006FB07FC44F100044FEA80604FEA1C4C34
:1015C0000CFB0BF7D21B03FB0CF761EB07010CFBC9
:1015D0000EF7B0EB074072EB17420CFB08F734BF75
:1015E000A2EB0742B2EB074261EB174115EB1C156A
:1015F0004FEA813141EA92414FEA823242EA904217
:101600004FEA80304FEA0C7644F1000448EA034385
:101610004EEA0B484FF0000EB2EB080C71EB0307DB
:1016200024BF624639464EEB0E0E4FF0000B0018F9
:10163000524149414BEB0B0BB2EB080C71EB03072A
:101640007BF1000B24BF624639464EEB0E0E4FF085
:10165000000B0018524149414BEB0B0BB2EB080C4D
:1016600071EB03077BF1000B24BF624639464EEB5A
:101670000E0E51EA020718BF46F0010616EB0E7671
:1016800055F1000254F1000103D5BDE88901BDE820
:101690000088BDE88901B619BDE80048524141EB18
:1016A0000101A3F10103704780807F7E7D7C7B7AFE
:1016B0007978777676757473727171706F6E6E6DFE
:1016C0006C6C6B6A6A6968686766666564646363A4
:1016D00062616160605F5F5E5E5D5D5C5C5B5B5A2A
:1016E0005A59595858575756565555555454535397
:1016F00052525251515050504F4F4F4E4E4D4D4DF2
:101700004C4C4C4B4B4B4A4A4A494949484848473C
:10171000474747464646454545444444444343437A
:101720004342424242414141002B26D4770021D01E
:101730001CB54FEA370703B44FF010004FF010010B
:101740004FF000000FBC0BF1010BBDE81040BBF1E6
:10175000010F08BF5FEA170722BF12F1010211F162
:1017600001014FF0004143F1000300F0004043EA63
:1017700000007047F9D35708DAE746EA064613F146
:10178000400F4FEA16461FDD13F1200FDFBF16434F
:101790000A46002120335B42C8D0C3F1200746EA45
:1017A000064602FA07F74FEA164646EA0706C3F16D
:1017B000200722FA03F201FA07F721FA03F14FF0AA
:1017C000000342EA0702B1E746EA020646EA064695
:1017D0004FEA164646EA0106BCBF46EA0646360C04
:1017E0004FF000034FF000024FF000019EE72DE99B
:1017F000C048934630B491E8380007C831EA400C3D
:1018000048BF34EA430C03D5FFF7F2FDFFF78CFF26
:10181000F0BCBDE800882DE9C048934630B491E89B
:10182000380007C810F0804F08BF13F0804F03D175
:1018300000F005F8FFF778FFF0BCBDE8008820F065
:101840007F4780EA030023F07F4C07EB0C03A3F5EE
:101850007C5300F00040A3F1FE0392F0000F00F073
:10186000B38095F0000F00F077802DE901494FEA31
:1018700011404FEA144621EA004800FB06FC24EA26
:10188000064708FB06F607FB08F800FB07F718EB0E
:1018900006484CEB164C4FEA124B18EB07484FEA40
:1018A00015464CEB174022EA0B4E0BFB06FC25EAD3
:1018B00006470EFB06F607FB0EFE0BFB07F71EEBBB
:1018C000064E4CEB164C4FF000061EEB074E4CEB51
:1018D000174B18EB0B0840F1000018EB0E0B58EB00
:1018E000000840F100008F1A4FF000013CBFC943CF
:1018F000661B14BFB5EB040C00213CBFC943F61BAB
:101900004FEA17444EEA8E0E27EA04454FEA1C4779
:1019100004FB07622CEA074C05FB07F70CFB05F6F6
:1019200004FB0CFC16EB074642EB174216EB0C4689
:1019300042EB1C421BEB060658EB0202414146EA11
:101940009E0601D5BDE80189B619524141EB01015E
:10195000A3F10103BDE801894FEA14454FEA11479D
:1019600024EA054621EA074C05FB07F406FB07F7C6
:101970000CFB06F105FB0CFC11EB074144EB174493
:101980004FEA124711EB0C4144EB1C4422EA074C8E
:1019900005FB07F206FB07F70CFB06F605FB0CFC44
:1019A00016EB074642EB174216EB0C4642EB1C4582
:1019B0006A1854F1000148BF7047B619524141EB13
:1019C0000101A3F10103704795F0000F37D04FEAF2
:1019D00011424FEA144721EA024624EA074C02FB6F
:1019E00007F106FB07F70CFB06F402FB0CFC14EBFB
:1019F000074441EB17414FEA154714EB0C4441EB08
:101A00001C4125EA074C02FB07F506FB07F70CFB18
:101A100006F602FB0CFC16EB074645EB174516EBEA
:101A20000C4645EB1C42121951F1000148BF7047AA
:101A3000B619524141EB0101A3F1010370474FEA8E
:101A400014454FEA114724EA054621EA074C05FBF5
:101A500007F106FB07F70CFB06F24FF0000605FB4B
:101A60000CFC12EB074241EB174112EB0C4251EB1D
:101A70001C4148BF7047921841EB0101A3F10103DB
:101A8000704700BFFEE7000010B5C8210348FEF70D
:101A900036FE00200249088010BD00000001002031
:101AA0001A00002070472DE9F0410246002500266B
:101AB000002000230024002791F803C00CF00F053C
:101AC00091F803C00CF0100CBCF1000F03D091F89A
:101AD00002C04CEA050591F800C0BCF1000F31D0FE
:101AE000146800202BE04FF0010C0CFA00F3B1F861
:101AF00000C00CEA03069E4220D183004FF00F0C79
:101B00000CFA03F7BC4305FA03FC4CEA040491F811
:101B100003C0BCF1280F06D14FF0010C0CFA00FCF9
:101B2000C2F814C00AE091F803C0BCF1480F05D117
:101B30004FF0010C0CFA00FCC2F810C0401C082841
:101B4000D1D31460B1F800C0BCF1FF0F34DD54688C
:101B500000202EE000F1080C4FF0010808FA0CF309
:101B6000B1F800C00CEA03069E4221D183004FF079
:101B70000F0C0CFA03F7BC4305FA03FC4CEA04040F
:101B800091F803C0BCF1280F05D100F1080C08FA48
:101B90000CF8C2F8148091F803C0BCF1480F07D1CB
:101BA00000F1080C4FF0010808FA0CF8C2F8108098
:101BB000401C0828CED35460BDE8F08102460020C6
:101BC00093680B400BB1012000E000207047416199
:101BD000704701617047000010B541F61F410920B0
:101BE00000F000FA4FF4165002F072F93721034862
:101BF000FEF785FD01F082FE10BD000050000020C0
:101C000000BFFEE708B50121102000F095F842F270
:101C10000E00ADF8000010208DF8030003208DF8B1
:101C2000020069460F48FFF73EFF2020ADF8000094
:101C300028208DF8030069460A48FFF734FF4FF467
:101C400000510848FFF7C5FF02210648FFF7C1FF12
:101C500004210448FFF7BDFF08210248FFF7B9FF40
:101C600008BD00000010014000BFFEE77047000003
:101C700070B5002100230F22C47804B3154C2468EA
:101C800004F4E064C4F5E064210AC1F10403CA402D
:101C9000447804FA03F184781440214309010E4C7E
:101CA0000678A155047804F01F050124AC4005789E
:101CB0006D11AD0005F1E025C5F8004109E004789B
:101CC00004F01F050124AC40044D0678761145F858
:101CD000264070BD0CED00E000E400E080E100E093
:101CE00002490143024A1160704700000000FA05F2
:101CF0000CED00E07047000029B1064AD2690243AA
:101D0000044BDA6104E0034AD2698243014BDA6191
:101D1000704700000010024029B1064A12690243D0
:101D2000044B1A6104E0034A12698243014B1A61B1
:101D3000704700000010024029B1064A9269024330
:101D4000044B9A6104E0034A92698243014B9A6111
:101D5000704700000010024029B1064AD2680243D1
:101D6000044BDA6004E0034AD2688243014BDA6034
:101D7000704700000010024030B50021002200240E
:101D800000232D4D6D6805F00C0121B1042905D00B
:101D9000082923D105E0294D056022E0274D056083
:101DA0001FE0254D6D6805F47012234D6D6805F434
:101DB0008034022505EB92421CB9214D5543056044
:101DC0000BE01D4D6D6805F400351DB11C4D5543EC
:101DD000056002E0194D5543056002E0174D0560AE
:101DE00000BF00BF144D6D6805F0F0010909154DE5
:101DF0006B5C0568DD4045600F4D6D6805F4E06182
:101E0000090A104D6B5C4568DD4085600A4D6D68C0
:101E100005F46051C90A0B4D6B5C4568DD40C56037
:101E2000054D6D6805F44041890B074D6B5CC56835
:101E3000B5FBF3F5056130BD0010024000127A00D9
:101E400000093D002200002032000020704710B53C
:101E500000F002F810BD00000CB5002001900090C9
:101E60003348006840F480303149086000BF304892
:101E7000006800F4003000900198401C0190009828
:101E800018B90198B0F5A06FF1D12948006800F4A5
:101E9000003010B10120009001E000200090009877
:101EA000012843D12348006840F010002149086010
:101EB0000846006820F0030008600846006840F00B
:101EC000020008601A48406819494860084640689E
:101ED00048600846406840F48060486008464068B2
:101EE00020F47C1048600846406840F4E8104860E0
:101EF0000846006840F08070086000BF0C48006829
:101F000000F000700028F9D00948406820F0030074
:101F1000074948600846406840F00200486000BF3A
:101F20000348406800F00C000828F9D10CBD0000FF
:101F30000010024000200240042808D14FF0E021A8
:101F4000096941F004014FF0E022116107E04FF010
:101F5000E021096921F004014FF0E022116170478E
:101F60007047000010B51348006840F001001149A7
:101F7000086008464068104908400E494860084615
:101F800000680E4908400B4908600846006820F4C4
:101F9000802008600846406820F4FE0048604FF446
:101FA0001F008860FFF753FF4FF00060044908608E
:101FB00010BD0000001002400000FFF8FFFFF6FE19
:101FC00008ED00E010B50121054800F04AF828B1FD
:101FD0000121034800F036F801F07CFA10BD000042
:101FE000000400407FB505460C4601210220FFF7A2
:101FF00083FEADF80850ADF804400020ADF80A00AB
:10200000ADF8060001A90E4800F046F8012211467D
:102010000B4800F037F81D208DF8000000208DF8E7
:10202000010003208DF8020001208DF803006846AE
:10203000FFF71EFE0121024800F007F87FBD0000F7
:1020400000040040CA430282704721B1028842F076
:102050000102028004E002884FF6FE731A400280FB
:10206000704730B50246002000230024158A05EA97
:102070000103958905EA010413B10CB1012000E0C8
:10208000002030BD1AB183890B43838102E083892C
:102090008B43838170470000002202881D4B9842C9
:1020A0000ED01D4B98420BD0B0F1804F08D01B4B87
:1020B000984205D01A4B984202D01A4B984204D14C
:1020C0004FF68F731A404B881A43174B984207D02C
:1020D000164B984204D04FF6FF431A40CB881A4360
:1020E00002808B8883850B8803850A4B98420BD02E
:1020F000094B984208D00E4B984205D00D4B9842A0
:1021000002D00D4B984201D10B7A038601238382C2
:1021100070470000002C01400034014000040040E2
:1021200000080040000C0040001000400014004077
:1021300000400140004401400048014010B540F219
:102140002551204800F0C1F8002839D01D4800F082
:1021500077F9C4B2242C02D100201B4908801A4808
:1021600001880088401C184A1080184844540078A0
:1021700024281ED1154800794D281AD113484079DA
:10218000432816D10A2C14D150211148FEF7B7FA72
:102190000D4802880D490E48FEF732FA01200C491D
:1021A00081F85000002008490880C8210748FEF740
:1021B000A6FA05480088C82802DBC8200249088022
:1021C00010BD0000003801401A000020000100206E
:1021D0008700002008B540F22551074800F075F847
:1021E00040B1054800F02CF9C0B2009001216846CA
:1021F00001F008F908BD00000048004021B18289C3
:1022000042F40052828104E082894DF6FF731A4045
:102210008281704710B504462048844209D10121CB
:102220008803FFF799FD00214FF48040FFF794FDEC
:1022300032E01B48844209D101214804FFF76CFDBC
:1022400000214FF40030FFF767FD25E01548844278
:1022500009D101218804FFF75FFD00214FF48020A0
:10226000FFF75AFD18E01048844209D10121C80443
:10227000FFF752FD00214FF40020FFF74DFD0BE06A
:102280000A48844208D101210805FFF745FD0021D5
:102290004FF48010FFF740FD10BD000000380140F2
:1022A0000044004000480040004C00400050004006
:1022B00002460020B1F5007F00D100BF13880B401B
:1022C0000BB1012000E00020704770B502460024E9
:1022D00000230025002040F66A16B14200D100BF5D
:1022E000C1F3421501F01F03012606FA03F3012D85
:1022F00002D19689334006E0022D02D1168A33407E
:1023000001E0968A33400C12012606FA04F416887E
:10231000344013B10CB1012000E0002070BDF0B5D5
:102320000346002400260025002040F66A17B94223
:1023300000D100BF1846C1F3421401F01F06012767
:1023400007FA06F5012C01D10C3004E0022C01D172
:10235000103000E014301AB107682F43076002E024
:102360000768AF430760F0BD2DE9F04786B005462A
:102370000E460024A24600BFA1460027B08900B146
:1023800000BF2F462C8A4CF6FF700440F0880443AF
:102390002C82AC894EF6F3100440B0883189084392
:1023A000718908430443AC81AC8A4FF6FF40044076
:1023B000B0890443AC8201A8FFF7DEFC1F488742C6
:1023C00002D1DDF810A001E0DDF80CA0A88900F42E
:1023D000004040B10AEBCA0000EB0A103168490026
:1023E000B0FBF1F807E00AEBCA0000EB0A10316815
:1023F0008900B0FBF1F86420B8FBF0F0040120097B
:10240000642101FB1089A88900F4004040B132200A
:1024100000EBC900B0FBF1F000F00700044308E056
:10242000322000EB09106421B0FBF1F000F00F0046
:1024300004432C8106B0BDE8F0870000003801405D
:1024400001468888C0F308007047C1F30802828003
:10245000704700BFFEE7490050EAC12018BF0420C2
:102460004A0D18BF40F0010040F2FF72B2EB515F1D
:1024700008BF40F00200012808BF0520704730382F
:102480000A2801D20120704700207047014600BF92
:102490007047024600210020137803F0010303B1C6
:1024A000491C1378C3F3400303B1491C1378C3F3E9
:1024B000800303B1491C09B9002007E001F00703BC
:1024C0000BB9C80802E0012303EBD10070470000FC
:1024D00010B50020104981F8500081F8510081F8B2
:1024E000780050210C48FEF70AF90B4852300021C1
:1024F00001604160018181720B30016041600181A6
:1025000081725D38A0F868106A30016041608160B6
:102510006A38A0F8761010BD8700002010B56FF063
:102520000400FFF709FD0A4800680A49B0FBF1F012
:10253000094908700846007800EB4001C1EBC01063
:102540004FF6FF7101EAC0000449088010BD000089
:102550000000002000127A00140000201600002065
:102560000146114A12884A434FF0E0235A61002283
:102570009A611A46126942F001021A6100BF4FF0D7
:10258000E022106900F001021AB100F48032002A42
:10259000F5D04FF0E022126922F001024FF0E02363
:1025A0001A6100229A61704716000020044603E079
:1025B000214602A0FDF7B4FEFAE700004552524F53
:1025C0005225640D0A00000001B581B00020009082
:1025D000694601AA5078087010784870BDF800006C
:1025E0000CBD0146080601F47F4240EA022001F4D6
:1025F0007F0240EA122040EA1160704700BF054A9E
:10260000128802F04002002AF9D0C2B2014B1B1D11
:102610001A80704700380140024612B102F00700EC
:1026200028B9082901D8002070470120FCE702F0F2
:102630000700C0F10800884201D30020F4E7012020
:10264000F2E730B502460B460021002400250AB906
:10265000481E30BD002108E0545C581A401E155C2D
:102660005554581A401E1454491CB1EB530FF3D360
:102670000020EEE72DE9F04104460D460026002734
:1026800004B11DB94FF0FF30BDE8F08100F0BCF996
:10269000074628782178884209D0304890F84101CF
:1026A00020F00100401C2D4981F841010126687885
:1026B0006178884209D0294890F8410120F0020051
:1026C000801C264981F841010126A878A17888421A
:1026D00009D0224890F8410120F00400001D1F4954
:1026E00081F841010126E878E178884209D01B4849
:1026F00090F8410120F008000830184981F84101A4
:10270000012628792179884209D0144890F841019E
:1027100020F010001030114981F8410101263222C9
:10272000611D681DFDF740FF80B10D480068381A33
:1027300041F27071884209D3084890F8410120F0B5
:1027400020002030054981F841010126012E03D1E6
:1027500000F05AF902490860304695E72C02002043
:10276000400000202DE9F0438DB005460C4616468A
:102770004FF000080027B94634216846FDF7E1FF15
:1027800028788DF800000DB104B126B94FF0FF3064
:102790000DB0BDE8F0836846FFF77BFE804608F188
:1027A000010081449DF8000000F0010090B111216A
:1027B0002278601C81542078401C207043466A1C9B
:1027C0000121384600F0CCFE08B1012000E00020D5
:1027D00030707F1C9DF80000C0F3400090B11221C2
:1027E0002278601C81542078401C207043466A1C6B
:1027F0000121384600F0B4FE08B1012000E00020BD
:1028000070707F1C9DF80000C0F3800090B1132110
:102810002278601C81542078401C207043466A1C3A
:102820000121384600F09CFE08B1012000E00020A4
:10283000B0707F1C0020ABE72DE9F0438DB0064659
:102840000F4690464FF000090025002434216846C9
:10285000FDF777FF414890F841018DF80000641CB6
:1028600006B127B94FF0FF300DB0BDE8F0833B480B
:1028700090F8410100F0010038B133780DEB04020B
:102880000121284600F02EFE6D1C344890F84101CD
:10289000C0F3400038B173780DEB040201212846E3
:1028A00000F020FE6D1C2D4890F84101C0F380001F
:1028B00038B1B3780DEB04020121284600F012FE76
:1028C0006D1C264890F84101C0F3C00038B1F37880
:1028D0000DEB04020121284600F004FE6D1C1F4888
:1028E00090F84101C0F3001038B133790DEB0402C8
:1028F0000121284600F0F6FD6D1C15B94FF00009C6
:1029000008E005F0070010B94FEAD50902E0012000
:1029100000EBD509B9F1010F04D90DEB04004946CC
:10292000FFF78FFE4C440D4890F84101C0F3401072
:1029300030B10DEB04003222711DFDF761FE32341F
:102940000648002180F84111C8F800406946384621
:10295000D8F80020FDF754FE002085E72C02002067
:1029600070B5054600F050F8044600262249284676
:10297000FFF780FE012814D11F4A3B3AA2F134012F
:102980002846FFF759FF38B91C48D0F8762100F5E2
:10299000A171142000F04CFD372229461648FDF79E
:1029A0002FFE1748B4FBF0F100FB114000BB1548A7
:1029B0000068A0421CD0FF2201210F487038FDF7AB
:1029C00096FE0D4A3B3AA2F134012846FFF734FF48
:1029D00038B90A48D0F8762100F5A171142000F02A
:1029E00027FD372229460448FDF70AFE0548046002
:1029F0003046FDF762FC70BDDD0300202C02002094
:102A0000C02709004400002001480068704700000A
:102A10003800002010B5114890F89E0001281BD105
:102A20000E4890F89D00022811DAFFF7EDFF0B49E0
:102A3000D1F8E910401AC8280ED900F07FFC0748E9
:102A400090F89D00401C054981F89D0004E050214C
:102A500002489D30FDF753FE10BD00002C020020FF
:102A60003EB5044600250CB9681E3EBD20680090A6
:102A7000606801909DF80400401CC0B28DF804000D
:102A80000520FFF7A1FDADF802000921684600F01E
:102A90006DFC8DF808000921684601F09FF9054694
:102AA0002846E2E7FEB504460D4600260CB9701E26
:102AB000FEBD684600F060F912208DF804006079D0
:102AC0008DF805000620FFF77FFDADF802008DF8B8
:102AD00008500A21684600F049FC8DF809000A21D7
:102AE000684601F07BF906463046E1E730B59DB017
:102AF0000446002514B9681E1DB030BD684600F0BC
:102B00003BF902208DF8040060798DF8050020A1C2
:102B100003C9CDE9020121A103C9CDE9040122A124
:102B200003C9CDE9080123A103C9CDE9060120228B
:102B300023A10AA8FDF7A9FD20222AA10DF1520028
:102B4000FDF75EFD0020CDF84A00CDF84E009DF85F
:102B500051008DF851009DF8510040F002018DF8B0
:102B600051100020FFF730FDADF848006F20FFF74F
:102B70002BFDADF802007321684600F0F7FB8DF8DD
:102B800072007321684601F029F905462846B3E72B
:102B900030303030303030340000000030303030F1
:102BA00030303032000000003033303330303030DD
:102BB0000000000030333031303130300000000090
:102BC000613266386364323333393837343264649F
:102BD00061303632373037653337366462306236CB
:102BE00000000000313431313965323737646530E7
:102BF00034653036623465313562616364616334F3
:102C000061303439000000002DE9FE4F80460E4649
:102C100017464FF0000B00200290814682460025A7
:102C200034460090B8F1000F01D006B11FB94FF043
:102C3000FF30BDE8FE8F404600F0F4FF00F0FF0AD1
:102C4000BAF1000F02D14FF0FF30F2E74FF0000968
:102C50005DE0012201A9404601F021F88346BBF165
:102C6000000F52D040480078FF281FD19DF8040083
:102C7000FF281BD13D48007848B9FF2020706070C4
:102C800002203B49088001203849087034E0384868
:102C90000088042830DD36480088A8422CD0FF2068
:102CA0002070607002203249088025E02E480078AC
:102CB000FF2803D19DF8040055281DD02B4800782B
:102CC000012819D19DF80400294909886054284831
:102CD0000088401C264908800846008804280BDD2F
:102CE0000094009C6088FFF76FFC001D85B22048AF
:102CF0000088A84200D10CE09DF804001A49087031
:102D00001C480078401C1B49087009F10109D14595
:102D10009FDB00BF16480088042823DD1448008884
:102D2000A8421FD112480188204600F01FFB0290E4
:102D30000F480088401E215C029881420FD12A462C
:102D400021463046FDF75CFC3D80002007490870B5
:102D500007490880074908700349087069E76FF060
:102D6000010066E7012064E74C00002048000020D5
:102D70004A0000204D00002010B504462CB907A0E1
:102D8000FDF7CEFA4FF0FF3010BD002020606060EC
:102D9000FF20207060700020F6E700004552523A94
:102DA0002067697A50726F746F636F6C48656164F5
:102DB000496E6974206865616420697320656D706F
:102DC0007479200A000000002DE9F04FA5B00546F7
:102DD0008B46904699460020249082460026002784
:102DE0006C46BBF1000F03D1401E25B0BDE8F08F4B
:102DF000B9F1010F04D12E7AB01D404487B202E030
:102E000008F1050087B2FF2004F8010B04F8010B5C
:102E1000381204F8010B04F8017B2879401C04F8EF
:102E2000010B687904F8010B002004F8010B04F889
:102E3000019B4FF0080AB9F1010F0CD104F8016BA6
:102E40000AF1010A0DEB0A00324605F10901FDF70E
:102E5000D7FBB2443444B8F1000F05D00DEB0A00A3
:102E600042465946FDF7CCFB391D684600F07EFA14
:102E70000146F81C0DF80010391D684600F0AEFF41
:102E800024902498002802DA6FF00100ADE70020BA
:102E9000ABE700002DE9F04780460C4617461D467B
:102EA000089E94F800900CB105B11EB94FF0FF30A8
:102EB000BDE8F087B8F1000F5DD115212F48FDF76F
:102EC0001EFCB9F1050F34D0B9F1110F03D0B9F1DF
:102ED000120F4ED10DE0294A8D322849601CFFF7B0
:102EE00041FC01202549ED390870002500203060A3
:102EF00040E02248ED38617880F8411100F5BB725E
:102F000000F5A17100F2B110FFF796FC68B91B48FB
:102F1000ED38D0F8762100F5A171681CFDF770FB43
:102F2000132028703520306002E04FF0FF30BFE7FB
:102F300020E07A1E611C1148A438FDF761FB781E61
:102F40000E49ED39C1F8910010210C48ED3890F888
:102F5000ED20EE308154EE3890F8ED00401C07492A
:102F6000ED3981F8ED000320087000250020306065
:102F700000E000BF00BF00209AE700001903002016
:102F800070B50446254614B94FF0FF3070BD41229C
:102F900005F108010A48FDF733FB0F21094890F8B5
:102FA0002C2100F22D108154064890F82C01401C71
:102FB000044981F82C01052008700020E6E7000094
:102FC000210400202C02002010B5044614B94FF053
:102FD000FF3010BD2089FFF7F7FA2081B348007851
:102FE000C0F38000217AC1F3800188424CD0207A5E
:102FF000C0F3800020B3207A00F0010068B1002106
:10300000AB4890F8022100F203108154A84890F8D0
:103010000201401CA64981F80201207AC0F3400059
:1030200090B30121A24890F8022100F203108154CC
:103030009F4890F80201401C9D4981F8020123E05D
:10304000207A00F0010068B10021994890F802212F
:1030500000F203108154964890F80201401C9449F4
:1030600081F80201207AC0F3400068B10221904843
:1030700090F8022100F2031081548D4890F802016B
:10308000401C8B4981F8020188480078C0F3C000D9
:10309000217AC1F3C001884228D0207AC108834830
:1030A000007861F3C30081490870207AC0F3C00042
:1030B00070B103217E4890F8022100F20310815480
:1030C0007B4890F80201401C794981F802010DE02B
:1030D0000421774890F8022100F2031081547448CB
:1030E00090F80201401C724981F802016F48007893
:1030F000C0F30010217AC1F30011884228D0207A51
:1031000001096A48007861F3041068490870207A60
:10311000C0F3001070B10521654890F8022100F25B
:1031200003108154624890F80201401C604981F804
:1031300002010DE006215E4890F8022100F2031022
:1031400081545B4890F80201401C594981F8020102
:1031500056480078C0F34010217AC1F340118842EC
:1031600028D0207A41095148007861F345104F4931
:103170000870207AC0F3401070B107214C4890F8D5
:10318000022100F203108154494890F80201401CCA
:10319000474981F802010DE00821454890F80221D5
:1031A00000F203108154424890F80201401C40494B
:1031B00081F802013D484078C0F3C001607AC0F355
:1031C000C000814228D0607AC1083848407861F355
:1031D000C30036494870607AC0F3C00070B10B215B
:1031E000334890F8022100F203108154304890F8DF
:1031F0000201401C2E4981F802010DE00C212C48EF
:1032000090F8022100F203108154294890F802013D
:10321000401C274981F8020124484078C0F300117E
:10322000607AC0F30010814228D0607A01091F48FB
:10323000407861F304101D494870607AC0F30010B3
:1032400070B109211A4890F8022100F2031081544C
:10325000174890F80201401C154981F802010DE061
:103260000A21134890F8022100F2031081541048FB
:1032700090F80201401C0E4981F802010D210C4812
:1032800090F8022100F203108154094890F80201DD
:10329000401C074981F80201607A00F0070081F8BC
:1032A000E80102200870002093E600004E00002094
:1032B0002C02002070B50446254614B94FF0FF30AB
:1032C00070BD1548A9680160E9684160298A0181DB
:1032D000A97C8172A0F2E911B1F8E901FFF774F954
:1032E0000E49A1F8E901D1F8F101FFF77AF90B498C
:1032F000C1F8F1010E21094890F8172100F58C70F2
:103300008154064890F81701401C044981F81701C0
:10331000042008700020D3E7150400202C020020B0
:1033200010B5FFF771FB044600BFFFF76DFB001BF4
:10333000B0F5167FF9D900F017FB10BD10B50024C9
:10334000094890F89E0000B910BD0748B0F8E71092
:103350009F3000F043FD0446FFF756FB0249C1F8D9
:10336000E90000BFF0E700002C02002010B5024683
:103370000024002302B109B9002010BD022303E09C
:10338000D05C2044C4B25B1C481E9842F8D820464A
:10339000F3E7000070B504460D4614B94FF0FF3056
:1033A00070BD50210B48FDF7AAF92A46214609486D
:1033B000801CFDF725F907489D38A0F8E75001214A
:1033C00080F89E10FFF720FB02499D39C1F8E90003
:1033D0000020E5E7C902002070B50446084D14B985
:1033E0004FF0FF3070BD2879401C2179884204D10C
:1033F00050210348801EFDF782F90020F2E700000B
:10340000CB02002070B504460D4600260CB9701E94
:1034100070BD2A462146054800F092FC0646AE42A1
:1034200002D04FF0FF30F3E73046F1E762040020AE
:103430002DE9F04393B006460F4690464FF0000941
:1034400001AC08F1060085B227B94FF0FF3013B088
:10345000BDE8F083FF2004F8010B04F8010B2812EB
:1034600004F8010B04F8015B052004F8010B18486F
:1034700090F89510D0F89500401C154AC2F89500B8
:1034800004F8011B002004F8010B04F8010B04F8F8
:10349000016B424639460DF10D00FDF7B1F8291DCB
:1034A00001A8FFF763FF0146E81C01AA1154291D7A
:1034B00001A800F093FC8146B9F1000F02DA6FF029
:1034C0000100C4E7291D01A8FFF764FF0020BEE743
:1034D0002C02002002480068401C01490860704727
:1034E000380000202DE9F0470546884614461E4660
:1034F0004FF00009CA460027002314B9581EBDE842
:10350000F087EB0841462846FFF786F807463FB9A3
:10351000E05C05F0070106FA01F10843E0541DE004
:10352000012F1BD1F0B205F00701C1F1080140FAEB
:1035300001F905F00700C0F10801FF20084100EA89
:10354000060A581C205C40EA0900591C6054E05CE3
:1035500005F007010AFA01F10843E0540020CEE724
:103560002DE9F04F8FB004460F4690461D460026C9
:10357000B246B146B34600200E90B8F1000F00D01D
:1035800025B94FF0FF300FB0BDE8F08F4FEAD409F6
:103590002A46414601A8FDF733F8012D09D92946ED
:1035A00001A8FFF74EF8B0F1FF3F02D14FF0FF3016
:1035B000E9E739462046FFF72FF88246BAF1000FB7
:1035C0000CD101A810F8090004F007010841C7F167
:1035D0000802FF2111410840064321E0BAF1010F22
:1035E0001ED101A909F10100085C04F00701C1F135
:1035F0000801791AC1F10802FF21114100EA010B0B
:1036000001A810F8090004F0070108410E9004F029
:103610000700C0F108010BFA01F006430E980643BB
:103620003046B0E72DE9F05F06460C46934600278A
:103630002546A046A146A24606B11CB94FF0FF3070
:10364000BDE8F09F00272FE0701CC05D142827D232
:10365000DFE800F01B1C1D26261E1F202126262623
:1036600026222425230A0E1728781249087018E00C
:10367000687810494870084641780FA0FCF750FE62
:103680000FE0A8780B4988700BE00AE009E008E039
:1036900007E006E005E004E003E002E001E000E00E
:1036A00000BF00BF781CC7B23078B842CCDC002025
:1036B000C6E70000500000204576743A2045564584
:1036C0004E545F63686F6F73655F32202564200A14
:1036D000000000002DE9F047A8B0054600260027AD
:1036E0000020039002900024814680461DB9401EB0
:1036F00028B0BDE8F087FFF78DF903AA774978482D
:10370000FFF782FA0646002E7DD1FFF77DF982464B
:10371000BDF80C20514673A0FCF702FE002701E023
:10372000781C87B2BDF80C008742F9DB6B4C20791E
:103730000F2848D00ADC0E285FD2DFE800F05E16C2
:103740005E1A5E5E3C315E5E3D5E3E35182845D0B9
:1037500006DC11283DD014283CD016284DD12DE090
:10376000222843D02A2848D129E02046FFF7BEF975
:1037700048E002A8009008F10900BDF80C301A1AC0
:103780005648083000EB080104AB4846FFF782FBBF
:1037900028B9E37904A92046029AFFF715FB31E026
:1037A0002046FFF75DF92DE02046FFF759F9204646
:1037B000FFF70AFC26E000BF00BF00BF00BF2046A5
:1037C000FFF70AFE1EE02046FFF74AF9FFF7A8FDC3
:1037D00018E017E02046FFF7FFFD13E02046FFF753
:1037E000FBFD2046FFF766FD0CE00CE02046FFF7EE
:1037F000F3FD2046FFF7C4FB04E002212046FFF75B
:1038000051F900BF0AE016F1020F07D1334C012134
:103810002046FFF747F96FF0010069E72F48401E87
:103820000078062853D2DFE800F052031424304118
:1038300000202A49491E0870372201F5BD71A1F107
:103840008D00FFF7EFFE15212448EC30FCF757FF01
:103850003EE000202149491E0870012201F5F47163
:10386000A1F1E600FFF7DEFE15212348FCF747FF34
:103870002EE000201949491E08700846D0F8912012
:103880004931ED30FFF7CEFE22E000201349491EFA
:1038900008700C2201F2E911A1F1D200FFF7C2FE7B
:1038A000152115481530FCF72AFF11E000200B49BF
:1038B000491E0870412201F2F511A1F1C900FFF77C
:1038C000B1FE41210C482A30FCF719FF00E000BF8F
:1038D00000BF2846FFF744F8002009E72D0200202A
:1038E0006204002057694669324D43555B253464B4
:1038F0003A2534645D3A20002E03002010B5902054
:10390000064908600648C860084600F0BDF940F264
:1039100036210448FCF7F3FE10BD000062040020CD
:10392000720400202C0200204FF4A060FEF7D8F9AA
:103930004FF4165000F07AFAFEF7F0FDFEF762F948
:10394000FEF7C6FDFEF748F90BE000F013F800F0B3
:1039500091F800F015FB0348FFF7BCFE3220FEF79C
:10396000FFFDF2E750000020012080F3138800BF24
:1039700070470000F8B50026374890F8500000283E
:1039800069D00020344981F8500034A0FCF7C8FC0D
:1039900000BF5EE046B936A12F48FCF7F3FD0400F6
:1039A00055D10120FEF702FE641C31A12046FCF730
:1039B000E9FD050048D0072E2ED2DFE806F02D04E1
:1039C0000B11181F26002A1B214623485230FCF7F2
:1039D00017FE22E02A1B21466846FCF711FE1CE078
:1039E0002A1B21461C485D30FCF70AFE15E02A1B05
:1039F000214619486830FCF703FE0EE02A1B2146D9
:103A000015486A30FCF7FCFD07E02A1B21461248E6
:103A10007630FCF7F5FD00E000BF00BF2C4601202A
:103A20000D4981F851009DF80000412803D1012083
:103A300081F8780007E09DF80000562803D10020A7
:103A4000054981F8780002E00220FEF7AFFD701C06
:103A5000C6B2062E9EDDF8BD870000202A2A2A2A3B
:103A60002A2A2A2A2A2A2A2A2A2A0D0A000000009B
:103A70002C00000010B54B4890F8510000287DD074
:103A80000020484981F85100084690F87800002845
:103A900075D0002081F8780043A0FCF741FC414834
:103AA0005D30FCF731FC46A0FCF73AFC3D4890F84D
:103AB0005D00444908703B4890F85E004870394802
:103AC00090F85F008870374890F86000C8703548FB
:103AD00090F861000871334890F8620048713148ED
:103AE00090F8630088712F4890F86400C8712D48E1
:103AF00090F8650008722B4890F86600487232A072
:103B0000FCF70EFC27486830FCF7FEFB2CA0FCF706
:103B100007FC32A0FCF704FC22486A30FCF7F4FBF7
:103B200027A0FCF7FDFB1F4890F86A002549887222
:103B30001C4890F86B00C8721A4890F86C00087323
:103B4000184890F86D004873164890F86E00887316
:103B5000144890F86F00C873124890F87000087409
:103B6000104890F8710048740E4890F872008874FC
:103B70000C4890F87300C8740A4801E011E00DE0A9
:103B800090F8740008751BA0FCF7CAFB0548763056
:103B9000FCF7BAFB0AA0FCF7C3FB02E01AA0FCF793
:103BA000BFFB10BD87000020536176655F446174E0
:103BB000612E6C61746974756465203D200000009D
:103BC0000D0A0000C8010020536176655F446174EE
:103BD000612E4E5F53203D2000000000536176654A
:103BE0005F446174612E6C6F6E67697475646520E3
:103BF0003D200000536176655F446174612E455F2E
:103C000057203D20000000004750532044415441BC
:103C1000206973206E6F742075736566756C6C21F6
:103C20000D0A000000B5024612B94FF0FF3000BD8A
:103C300050689168884201D10020F8E75068916887
:103C4000884203D290685168401AF0E7104600F0AD
:103C500014F851689368C91A401AE8E730B5044669
:103C600014B94FF0FF3030BD204600F006F805468D
:103C70002046FFF7D7FF281AF5E7014611B94FF0A4
:103C8000FF3070470868FCE7014611B94FF0FF307C
:103C90007047C8684860C86888600020F8E72DE968
:103CA000F04104460F461646002514B9681EBDE8CB
:103CB000F08117B94FF0FF30F9E76068A1688842DA
:103CC00014D22046FFF7AEFFB04201D9304602E0E1
:103CD0002046FFF7A7FF054661682A463846FCF7ED
:103CE0008FFC6068284460602846E0E72046FFF7C4
:103CF000C4FF6168E268891A401AB0420AD93546A1
:103D000061682A463846FCF77BFC6068284460609E
:103D10002846CCE72046FFF7B0FF6168E268891AC1
:103D2000451A61682A463846FCF76AFCE06860601C
:103D3000721B79192046FFF7B2FF05442846B6E703
:103D40002DE9F04104460F461546002604B11FB97F
:103D50004FF0FF30BDE8F0812046FFF77FFFA8421B
:103D600002D86FF00100F5E76068A16888422AD8A0
:103D70002046FFF782FFA168E268891A461AB54219
:103D800013D8A0682A463946FCF73AFCA0682844B4
:103D9000A0602046FFF771FFE1680844A1688842EF
:103DA00001D1E068A0602846D4E7A06832463946D1
:103DB000FCF726FCE068A060AA1BB9192046FFF7B3
:103DC000BFFF3044C6E7A0682A463946FCF718FC16
:103DD000A0682844A0602846BCE7000070B50546EE
:103DE0000E46002400BF1BE0295D0F48FEF72DFBA7
:103DF00000BF40210C48FEF75BFA0028F9D0022CE6
:103E00000DD3285DFF280AD155210748FEF71DFB79
:103E100000BF40210448FEF74BFA0028F9D0641C8B
:103E2000B442E1D3304670BD0048004010B586B0C2
:103E30000446012144F20400FDF77EFF4FF40070B8
:103E4000ADF8140003208DF8160018208DF8170027
:103E500005A91D48FDF727FE4FF48060ADF814005A
:103E600004208DF8170005A91748FDF71CFE252032
:103E70008DF8000003208DF801008DF8020001206C
:103E80008DF803006846FDF7F3FE01940020ADF8BD
:103E90000800ADF80A00ADF80C00ADF810000C20D9
:103EA000ADF80E0001A90948FEF75EFA012240F2C2
:103EB00025510648FEF733FA01210448FEF79EF922
:103EC000FDF7E2FD06B010BD0008014000380140DA
:103ED00010B586B0044601210820FDF72DFF012111
:103EE0008804FDF709FF2448FEF794F94FF4806039
:103EF000ADF8100003208DF8120018208DF8130083
:103F000004A91E48FDF7CFFD4FF40060ADF8100086
:103F100004208DF8130004A91848FDF7C4FD00948F
:103F20000020ADF80400ADF80600ADF80800ADF8CB
:103F30000C000C20ADF80A0069460F48FEF714FA91
:103F400001210D48FEF75AF9012240F225510A4895
:103F5000FEF7E5F927208DF8140002208DF81500F2
:103F600003208DF8160001208DF8170005A8FDF735
:103F70007FFE06B010BD000000480040000C01406C
:103F800010B57848007830387749487175484078DE
:103F90003038C1B274488171724880783038C1B20B
:103FA0007148C1716F48C0783038C1B26E48017233
:103FB0006C4800793038C1B26B4841726948407929
:103FC0003038C1B268488172664880793038C1B2F1
:103FD0006548C1726348C0793038C1B26248017324
:103FE0006048007A3038C1B25F4841735D48407A1A
:103FF0003038C1B25C4881735A48807A3038C1B2D7
:104000005948C1735748C07A3038C1B25648017414
:104010005448007B3038C1B2534841745148407B0A
:104020003038C1B2504881744E48807B3038C1B2BC
:104030004D48C1744B48C07B3038C1B24A48017505
:104040004848007C3038C1B2474841754548407CFB
:104050003038C1B2444881754248807C3038C1B2A2
:104060004148C1753F48C07C3038C1B23E480176F6
:104070003C48007D3038C1B23B48417601783BA0D6
:10408000FCF74EF9384841783CA0FCF749F936482E
:1040900081783EA0FCF744F9334801793FA0FCF752
:1040A0003FF931488078012803D141033E48FDF7AC
:1040B00090FD2D48807850B94FF400513A48FDF7F3
:1040C00086FD0020284908704870887008712648CD
:1040D0004078012803D102213348FDF778FD2248BA
:1040E0000078012803D104212F48FDF770FD1E48F8
:1040F000007818B904212C48FDF76BFD1A48407868
:1041000018B902212848FDF764FD174800780128F6
:1041100000D100E0002014494978012900D100E0D5
:104120000021084318B108211F48FDF752FD0E4831
:10413000007830B90C48407818B908211A48FDF7C2
:1041400046FD20211848FDF739FD012801D1064917
:10415000087120211448FDF731FD10B900200249F3
:10416000087110BDC80100205000002063686F6F07
:1041700073655F31203A202564200A0063686F6F01
:1041800073655F32203A202564200A0073776974D2
:104190006368203A202564200A000000636172648D
:1041A000203A202564200A000010014010B50029A3
:1041B0000AD00878002807D005487844FDF766F84B
:1041C000002801D0002010BD0248784410BD000036
:1041D000460100003E01000010B500290AD0087811
:1041E000002807D005487844FDF750F8002801D092
:1041F000002010BD0248784410BD00002A020000D3
:1042000022020000FCF7CEBD040000080000000000
:10421000000000020001000010000000000000008B
:1042200000000000303132333435363738394142FE
:104230004344454640305800303132333435363708
:10424000383961626364656640307800024000007E
:10425000000000A00000000005400000000000C8B1
:10426000000000000C4000000000409C0000000026
:10427000194000000020BCBE0000000034400000D7
:10428000BFC91B8E00000004B5400000504BCFD0CA
:104290006607E2CF010000006C4100003E8251AA97
:1042A000DFEEA73401000000D9420000DCB5A0E237
:1042B0003A301F97FFFFFFFFB4450000FD25A0C85F
:1042C000E9A3C14FFFFFFFFFFF3F00000000008098
:1042D00000000000FF3F0000000000800000000020
:1042E0002C44000800000020500000006C01000871
:1042F0007C44000850000020180B000088010008D2
:104300001001000043000000F8FFFFFF00404040A4
:104310004040404040404141414141404040404098
:104320004040404040404040404040404005020244
:104330000202020202020202020202020220202003
:10434000202020202020200202020202020290905F
:10435000909090901010101010101010101010105D
:1043600010101010101010100202020202028888B1
:1043700088888888080808080808080808080808BD
:1043800008080808080808080202020240000000A5
:10439000000000000000000000000000000000001D
:1043A000000000000000000000000000000000000D
:1043B00000000000000000000000000000000000FD
:1043C00000000000000000000000000000000000ED
:1043D00000000000000000000000000000000000DD
:1043E00000000000000000000000000000000000CD
:1043F00000000000000000000000000000000000BD
:1044000000000000000000000000000000000000AC
:104410001C00000043000000F8FFFFFF0C0000003C
:104420000E0000000F0000002E00000000A24A0451
:104430000000000000000000010203040607080954
:10444000000000000000000000000000000000006C
:104450000000010203040102030406070809020424
:10446000060800000000000000000000000000003E
:0C44700000000000000000000000000040
:040000050800027974
:00000001FF
